:020000040800F2
:10000000000003203549000885490008854900089B
:10001000854900088549000885490008000000005E
:10002000000000000000000000000000E94400089B
:100030008549000800000000ED440008F144000874
:100040008549000885490008854900088549000858
:1000500085490008F54400088549000885490008DD
:100060008549000885490008854900088549000838
:100070008549000885490008854900088549000828
:10008000854900088549000885490008F9440008A9
:100090000545000885490008114500088549000804
:1000A00085490008854900088549000885490008F8
:1000B00085490008854900088549000885490008E8
:1000C00085490008854900088549000885490008D8
:1000D00085490008854900088549000885490008C8
:1000E0001D45000885490008854900088549000824
:1000F00085490008854900088549000885490008A8
:100100008549000885490008854900088549000897
:1001100085490008854900088549000825450008EB
:100120008549000885490008854900088549000877
:100130008549000885490008854900088549000867
:100140008549000885490008854900088549000857
:10015000854900088549000885490008514500087F
:100160008549000885490008854900088549000837
:1001700085490008854900088549000800000000FD
:10018000854900085D450008854900088549000843
:100190008549000885490008854900088549000807
:0C01A000854900088549000885490008D1
:1001B00010B5054C237833B9044B13B10448AFF3A1
:1001C00000800123237010BD3801002000000000D2
:1001D000844A000808B5034B1BB103490348AFF339
:1001E000008008BD000000003C010020844A000897
:1001F00081F0004102E000BF83F0004330B54FEAD8
:1002000041044FEA430594EA050F08BF90EA020F44
:100210001FBF54EA000C55EA020C7FEA645C7FEAD7
:10022000655C00F0E2804FEA5454D4EB5555B8BFFA
:100230006D420CDD2C4480EA020281EA030382EA6B
:10024000000083EA010180EA020281EA0303362DFD
:1002500088BF30BD11F0004F4FEA01314FF4801CD0
:100260004CEA113102D0404261EB410113F0004FE2
:100270004FEA03334CEA133302D0524263EB430399
:1002800094EA050F00F0A780A4F10104D5F1200E37
:100290000DDB02FA0EFC22FA05F2801841F1000192
:1002A00003FA0EF2801843FA05F359410EE0A5F166
:1002B00020050EF1200E012A03FA0EFC28BF4CF097
:1002C000020C43FA05F3C01851EBE37101F000454D
:1002D00007D54FF0000EDCF1000C7EEB00006EEB5A
:1002E0000101B1F5801F1BD3B1F5001F0CD34908E4
:1002F0005FEA30004FEA3C0C04F101044FEA44523B
:1003000012F5800F80F09A80BCF1004F08BF5FEAC1
:10031000500C50F1000041EB045141EA050130BDA1
:100320005FEA4C0C404141EB010111F4801FA4F144
:100330000104E9D191F0000F04BF01460020B1FA99
:1003400081F308BF2033A3F10B03B3F120020CDAD1
:100350000C3208DD02F1140CC2F10C0201FA0CF0AF
:1003600021FA02F10CE002F11402D8BFC2F1200C14
:1003700001FA02F120FA0CFCDCBF41EA0C019040CA
:10038000E41AA2BF01EB0451294330BD6FEA040413
:100390001F3C1CDA0C340EDC04F11404C4F12002FE
:1003A00020FA04F001FA02F340EA030021FA04F310
:1003B00045EA030130BDC4F10C04C4F1200220FA67
:1003C00002F001FA04F340EA0300294630BD21FAA5
:1003D00004F0294630BD94F0000F83F4801306BF6B
:1003E00081F480110134013D4EE77FEA645C18BF5F
:1003F0007FEA655C29D094EA050F08BF90EA020FF6
:1004000005D054EA000C04BF1946104630BD91EAED
:10041000030F1EBF0021002030BD5FEA545C05D1F0
:100420004000494128BF41F0004130BD14F580042F
:100430003CBF01F5801130BD01F0004545F0FE41A3
:1004400041F470014FF0000030BD7FEA645C1ABFD8
:10045000194610467FEA655C1CBF0B46024650EA0F
:10046000013406BF52EA033591EA030F41F400213B
:1004700030BD00BF90F0000F04BF0021704730B5C1
:100480004FF4806404F132044FF000054FF0000196
:1004900050E700BF90F0000F04BF0021704730B557
:1004A0004FF4806404F1320410F0004548BF40422C
:1004B0004FF000013EE700BF42004FEAE2014FEA81
:1004C00031014FEA02701FBF12F07F4393F07F4F5C
:1004D00081F06051704732F07F4208BF704793F05F
:1004E0007F4F04BF41F40021704730B54FF4607472
:1004F00001F0004521F000411CE700BF50EA010275
:1005000008BF704730B54FF000050AE050EA01021D
:1005100008BF704730B511F0004502D5404261EB8D
:1005200041014FF4806404F132045FEA915C3FF4CE
:10053000D8AE4FF003025FEADC0C18BF03325FEA6B
:10054000DC0C18BF033202EBDC02C2F1200300FA1C
:1005500003FC20FA02F001FA03FE40EA0E0021FA41
:1005600002F11444BDE600BF70B54FF0FF0C4CF42F
:10057000E06C1CEA11541DBF1CEA135594EA0C0FE1
:1005800095EA0C0F00F0DEF82C4481EA030621EA1C
:100590004C5123EA4C5350EA013518BF52EA033557
:1005A00041F4801143F4801338D0A0FB02CE4FF009
:1005B0000005E1FB02E506F00042E0FB03E54FF039
:1005C0000006E1FB03569CF0000F18BF4EF0010E31
:1005D000A4F1FF04B6F5007F64F5407404D25FEA2D
:1005E0004E0E6D4146EB060642EAC62141EA5551E0
:1005F0004FEAC52040EA5E504FEACE2EB4F1FD0C22
:1006000088BFBCF5E06F1ED8BEF1004F08BF5FEA9F
:10061000500E50F1000041EB045170BD06F0004651
:1006200046EA010140EA020081EA0301B4EB5C04FE
:10063000C2BFD4EB0C0541EA045170BD41F48011F6
:100640004FF0000E013C00F3AB8014F1360FDEBF1B
:10065000002001F0004170BDC4F10004203C35DAF7
:100660000C341BDC04F11404C4F1200500FA05F37A
:1006700020FA04F001FA05F240EA020001F000421B
:1006800021F0004110EBD37021FA04F642EB060191
:100690005EEA430E08BF20EAD37070BDC4F10C04BB
:1006A000C4F1200500FA04F320FA05F001FA04F27F
:1006B00040EA020001F0004110EBD37041F100016B
:1006C0005EEA430E08BF20EAD37070BDC4F1200576
:1006D00000FA05F24EEA020E20FA04F301FA05F2DE
:1006E00043EA020321FA04F001F0004121FA04F286
:1006F00020EA020000EBD3705EEA430E08BF20EA56
:10070000D37070BD94F0000F0FD101F0004640008F
:1007100041EB010111F4801F08BF013CF7D041EA11
:10072000060195F0000F18BF704703F00046520015
:1007300043EB030313F4801F08BF013DF7D043EAE6
:100740000603704794EA0C0F0CEA135518BF95EA9C
:100750000C0F0CD050EA410618BF52EA4306D1D123
:1007600081EA030101F000414FF0000070BD50EA42
:10077000410606BF1046194652EA430619D094EACC
:100780000C0F02D150EA013613D195EA0C0F05D1B6
:1007900052EA03361CBF104619460AD181EA03010A
:1007A00001F0004141F0FE4141F470014FF00000C2
:1007B00070BD41F0FE4141F4780170BD70B54FF05D
:1007C000FF0C4CF4E06C1CEA11541DBF1CEA1355DD
:1007D00094EA0C0F95EA0C0F00F0A7F8A4EB0504BF
:1007E00081EA030E52EA03354FEA013100F08880B6
:1007F0004FEA03334FF0805545EA131343EA12637F
:100800004FEA022245EA111545EA10654FEA002633
:100810000EF000419D4208BF964244F1FD0404F5EC
:10082000407402D25B084FEA3202B61A65EB030548
:100830005B084FEA32024FF480104FF4002CB6EB05
:10084000020E75EB030E22BFB61A754640EA0C0085
:100850005B084FEA3202B6EB020E75EB030E22BFC5
:10086000B61A754640EA5C005B084FEA3202B6EB06
:10087000020E75EB030E22BFB61A754640EA9C00C5
:100880005B084FEA3202B6EB020E75EB030E22BF95
:10089000B61A754640EADC0055EA060E18D04FEA53
:1008A000051545EA16754FEA06164FEAC30343EAF3
:1008B00052734FEAC2025FEA1C1CC0D111F4801FC0
:1008C0000BD141EA00014FF000004FF0004CB6E7B9
:1008D00011F4801F04BF01430020B4F1FD0C88BF58
:1008E000BCF5E06F3FF6AFAEB5EB030C04BFB6EB63
:1008F000020C5FEA500C50F1000041EB045170BD56
:100900000EF0004E4EEA113114EB5C04C2BFD4EB82
:100910000C0541EA045170BD41F480114FF0000E06
:10092000013C90E645EA060E8DE60CEA135594EA82
:100930000C0F08BF95EA0C0F3FF43BAF94EA0C0F85
:100940000AD150EA01347FF434AF95EA0C0F7FF4FA
:1009500025AF104619462CE795EA0C0F06D152EA4E
:1009600003353FF4FDAE1046194622E750EA410632
:1009700018BF52EA43067FF4C5AE50EA41047FF443
:100980000DAF52EA43057FF4EBAE12E74FF0FF3CA8
:1009900006E000BF4FF0010C02E000BF4FF0010C79
:1009A0004DF804CD4FEA410C7FEA6C5C4FEA430CF2
:1009B00018BF7FEA6C5C1BD001B050EA410C0CBF41
:1009C00052EA430C91EA030F02BF90EA020F0020A3
:1009D000704710F1000F91EA030F58BF994208BF0A
:1009E00090422CBFD8176FEAE37040F001007047C7
:1009F0004FEA410C7FEA6C5C02D150EA013C07D11E
:100A00004FEA430C7FEA6C5CD6D152EA033CD3D068
:100A10005DF8040B704700BF8446104662468C4662
:100A20001946634600E000BF01B5FFF7B7FF002895
:100A300048BF10F1000F01BD4DF808EDFFF7F4FFBE
:100A40000CBF012000205DF808FB00BF4DF808ED49
:100A5000FFF7EAFF34BF012000205DF808FB00BF6C
:100A60004DF808EDFFF7E0FF94BF012000205DF88E
:100A700008FB00BF4DF808EDFFF7CEFF94BF012043
:100A800000205DF808FB00BF4DF808EDFFF7C4FF3C
:100A900034BF012000205DF808FB00BF4FEA41028F
:100AA00012F5001215D211D56FF47873B3EB6252C0
:100AB00012D94FEAC12343F0004343EA505311F0E7
:100AC000004F23FA02F018BF404270474FF0000079
:100AD000704750EA013005D111F0004008BF6FF0B7
:100AE000004070474FF00000704700BF4A0011D22D
:100AF00012F5001211D20DD56FF47873B3EB625278
:100B00000ED44FEAC12343F0004343EA505323FA83
:100B100002F070474FF00000704750EA013002D1F8
:100B20004FF0FF3070474FF00000704753B94AB99B
:100B3000002908BF00281CBF4FF0FF314FF0FF30E5
:100B400000F072B9ADF1080C6DE904CE00F006F8C2
:100B5000DDF804E0DDE9022304B070472DE9F04739
:100B6000089E04468846002B4BD18A42154667D919
:100B7000B2FA82F24AB1C2F1200701FA02F320FA76
:100B800007F7954047EA030894404FEA154E230CB7
:100B9000B8FBFEF71FFA85FC0EFB178843EA0843F3
:100BA00007FB0CF1994209D9EB1807F1FF3080F0EF
:100BB0001B81994240F21881023F2B445B1AA4B278
:100BC000B3FBFEF00EFB103344EA034400FB0CFCC5
:100BD000A44509D92C1900F1FF3380F00781A44501
:100BE00040F2048102382C4440EA0740A4EB0C0494
:100BF00000271EB1D4400023C6E900433946BDE8B2
:100C0000F0878B4209D9002E00F0EB800027C6E95F
:100C1000000138463946BDE8F087B3FA83F7002F64
:100C200047D18B4202D3824200F2FA80841A61EBF0
:100C3000030301209846002EE0D0C6E90048DDE716
:100C400002B9FFDEB2FA82F2002A40F08F80491B1F
:100C50004FEA154E1FFA85F80127B1FBFEFC230C65
:100C60000EFB1C1143EA014308FB0CF1994207D922
:100C7000EB180CF1FF3002D2994200F2CD8084468D
:100C8000591AA3B2B1FBFEF00EFB101443EA044460
:100C900008FB00F8A04507D92C1900F1FF3302D258
:100CA000A04500F2B6801846A4EB080440EA0C40C8
:100CB0009FE7C7F1200CBB4022FA0CFE4EEA030E60
:100CC00001FA07F420FA0CF521FA0CF34FEA1E485A
:100CD0002543B3FBF8F92C0C08FB19331FFA8EFAE5
:100CE00044EA034309FB0AF49C4202FA07F200FAC1
:100CF00007F10BD91EEB030309F1FF3080F0878069
:100D00009C4240F28480A9F1020973441B1BADB2DE
:100D1000B3FBF8F008FB103345EA034400FB0AFA82
:100D2000A24508D91EEB040400F1FF336BD2A245A3
:100D300069D90238744440EA0940A0FB0289A4EB57
:100D40000A044C45C2464B4654D351D0002E69D0BC
:100D5000B1EB0A0564EB030404FA0CFCFD40FC4013
:100D60004CEA0505C6E90054002747E7C2F1200315
:100D700020FA03F7954001FA02F021FA03F34FEA53
:100D8000154E3843010CB3FBFEF71FFA85F80EFB36
:100D9000173341EA034107FB08F38B4204FA02F4DC
:100DA00007D9691807F1FF3C2FD28B422DD9023F9A
:100DB0002944CB1A81B2B3FBFEF00EFB103341EA9B
:100DC000034100FB08F38B4207D9691800F1FF3C8F
:100DD00017D28B4215D902382944C91A40EA07476D
:100DE0003BE73746304609E70746E7E61846FBE6A5
:100DF0004145ABD2B8EB020A69EB0E02013813464B
:100E0000A4E76046E9E7184695E76746D1E78146DB
:100E10007CE702382C4447E7ACF1020C2B442FE767
:100E2000384608E73746E9E6704700BF70B50E4B15
:100E30000E4D1B682A7806464FF47A70B0FBF2F02C
:100E4000B3FBF0F000F052FE08B90F2E01D90120DB
:100E500070BD0446024631464FF0FF3000F002FEFE
:100E60006E60204670BD00BF3401002000000020ED
:100E700008B50B4B1A6842F400721A601A6842F403
:100E800080621A601A6842F480721A60032000F0CF
:100E9000D7FD0020FFF7CAFF03F0F8FA002008BDD5
:100EA000003C0240034A044B11681B780B4413605A
:100EB000704700BF9002002000000020014B18681E
:100EC000704700BF90020020002800F09180F8B524
:100ED000056C0446002D00F08180236CDB0604D5F0
:100EE0000023012084F83C30F8BD226C4D49236872
:100EF0004D4D22F4885222F0020242F00202226496
:100F00004A6822F440324A604A68606802434A6094
:100F100058682169A768E66820F4807058605A68AC
:100F200042EA01225A60586820F0407058605968BF
:100F3000A06A39435960996821F4006199609A6800
:100F4000A84242EA06029A6054D09968E56A21F004
:100F5000706199609A6810439860996821F04051D7
:100F600099609A682A439A609968257E94F82000CF
:100F700021F0020199609A6842EA45029A605A6833
:100F8000002840D122F400625A60DA6AE56994F8D8
:100F90003070666922F47002DA62D86A013D40EA74
:100FA0000550D862986820F400709860996841EA0A
:100FB00047219960996821F4806199609A680020BE
:100FC00042EA86229A606064236C23F0030343F0B4
:100FD00001032364002384F83C30F8BD02F0B6FC22
:100FE0006564236C84F83C50DB063FF579AF7CE701
:100FF000012070479A6822F070629A609A6822F025
:1010000040529A60B0E742F40062616A5A605A68DE
:1010100022F460425A605A68013942EA41325A6009
:10102000B3E700BF002301400100000F10B490F8A7
:101030003C3083B00022012B01925CD0026893689F
:10104000012180F83C10D90714D4324B324C1B6874
:101050009168A4FB03439B0C03EB430341F00101A4
:1010600091600193019B2BB1019B013B0193019B7B
:10107000002BF9D19368DB072CD5036C23F4E063D4
:1010800023F0010343F48073036453685C0505D5C2
:10109000036C23F4405343F480530364036C13F450
:1010A00080531CBF436C23F0060343646FF022019E
:1010B00000241A4B80F83C4011605968C9060ED1D3
:1010C00017498A420ED001F580718A421ED0154917
:1010D0008A4215D0002003B05DF8044B7047104BD6
:1010E0009A42F7D1906810F04050F3D1936843F0E2
:1010F00080439360EFE7022003B05DF8044B704734
:101100005B6803F01F030F2BECD9E3E75B68DB069A
:10111000E8D0DFE73401002083DE1B4300230140D9
:10112000002001400022014090F83C30012B16D0F5
:1011300003689A68012122F0010280F83C109A604D
:101140009B68DB0706D4036C23F4885323F0010368
:101150000B430364002380F83C301846704702209C
:10116000704700BF03689A68520502D59B68DA058C
:1011700040D470B50D460446FFF7A0FE06466B1C32
:10118000226825D113689807FCD56FF0120313600D
:10119000236C43F400732364936813F0405F15D10C
:1011A000237E9BB9D36A13F4700F02D093685B055A
:1011B0000CD4236C23F480732364206C10F48050CF
:1011C00004D1236C43F00103236470BD002070BD83
:1011D00013689907D9D425B1FFF770FE801BA84288
:1011E000CDD9236C002243F00403236484F83C200F
:1011F0000320EAE7036C002243F02003036480F835
:101200003C200120704700BF0368D86C704700BFC6
:10121000F0B490F83C3082B00022012B019200F033
:1012200094800D688A6803680124092DAFB280F8A4
:101230003C4029D81C6905EB45064FF0070C0CFA19
:1012400006FC24EA0C041C611C6902FA06F626431B
:101250001E614E68062E06EB86022AD8596B053AA7
:101260001F24944021EA04015963596B07FA02F2E2
:101270000A435A633D4A93422DD0002380F83C3004
:10128000184602B0F0BC704707EB4706DC681E3E0C
:101290004FF0070C0CFA06FC24EA0C04DC60DC6856
:1012A00002FA06F62643DE604E68062E06EB86023C
:1012B000D4D90C2E31D8A2F123041F211A6BA140DE
:1012C00022EA01021A63196B07FA04F20A431A634D
:1012D000264A9342D1D1122D2DD0254B9D4238D193
:1012E000244A254B5168254C21F4800151605168F6
:1012F00041F4000151601B68A4FB03239B0C03EB2A
:1013000083035B000193019B002BB6D0019B013B43
:101310000193019B002BF9D1AFE7A2F141011F24FA
:10132000DA6A8C4022EA0402DA62DC6A07FA01F225
:101330002243DA629EE70F4B5A6822F400025A6099
:101340005A6842F480025A6097E7022002B0F0BC6B
:101350007047112D91D1074B5A6822F480025A60D0
:101360005A6842F400025A6087E700BF002001403B
:1013700012000010002301403401002083DE1B43D3
:1013800000287CD038B590F820300446002B73D06C
:101390002268136823F002031360FFF78FFD0546F0
:1013A00004E0FFF78BFD401B0A285CD823685A68CD
:1013B0009107F6D41A6842F001021A60FFF77EFD29
:1013C000054604E0FFF77AFD401B0A284BD8236846
:1013D0005A68D207F6D5227E012A1A680CBF42F05D
:1013E000800222F080021A60627E012A1A680CBF15
:1013F00042F0400222F040021A60A27E012A1A68DE
:101400000CBF42F0200222F020021A60E27E012A84
:101410001A680CBF22F0100242F010021A60227FFC
:10142000012A1A680CBF42F0080222F008021A6072
:10143000627F012A1A680CBF42F0040222F0040203
:101440001A60D4E90221D4E904500A4361682A43AE
:10145000024301390A4301250021DA61084661622D
:1014600084F8205038BD636A052243F40033636278
:10147000012084F8202038BD02F0BCFA88E7012062
:10148000704700BF90F82030013B012B05D9436A1B
:1014900043F480234362012070473C4BD3F8002281
:1014A00042F00102F0B4C3F80022D3F8002222F483
:1014B0007C52C3F80022D3F80022486A42EA002294
:1014C000C3F800224A69D3F81C52012402F01F001D
:1014D00004FA00F0C4432540C3F81C52CD69002D26
:1014E0003AD0012D15D1D3F80C520543C3F80C5254
:1014F000D2000F688D888E688B8902F1804202F5D8
:10150000C84245EA074543EA0643C2F84052C2F8DA
:1015100044328B691D4A9BBBD2F804322340C2F887
:1015200004320B692BBB194BD3F814221440C3F8B7
:1015300014420B6A012B05D1144AD2F81C3218430D
:10154000C2F81C02114AD2F8003223F00103002035
:10155000C2F80032F0BC7047D3F80C522540C3F8F3
:101560000C52D20002F18042CF688D888E680B88C1
:10157000C5E7064AD2F814320343C2F81432D8E75A
:10158000D2F804320343C2F80432CAE700640040D0
:1015900038B590F82030012B05D0436A43F400237E
:1015A0004362012038BD0268022380F820301368AE
:1015B00023F0010313600446FFF780FC054604E0B6
:1015C000FFF77CFC401B0A2807D823685B6813F0F0
:1015D0000103F5D16362184638BD636A052243F4FE
:1015E00000336362012084F8202038BD70B490F885
:1015F00020400568013C012CAE6806D9436A43F4DB
:1016000080234362012070BC704716F0E05F2ED04B
:10161000C6F30166032E31D00120B04018608B68FC
:1016200093BB0C68C86806F118031B0140EA4450DC
:10163000E850087D09693601AB190128C3F8841107
:1016400005D1D3F8841141F48071C3F88411354475
:101650005168C5F88C111268C5F88821D3F880212B
:1016600042F001020020C3F8802170BC7047436A39
:1016700043F40013436270BC01207047436A43F493
:10168000000343620120BEE7C8684C68034306F1CB
:101690001800000143EAC4032B50CAE72DE9F041CA
:1016A00090F82040013C012C06D9436A43F4802382
:1016B00043620120BDE8F0810568002958D02C69FB
:1016C000A40758D00C012E19D6F8B07107F0040702
:1016D0009760002F5CD1D6F8B0717F0D1760D6F8F7
:1016E000B0E1D6F8B4C1D6F8B471D6F8B4612544E7
:1016F000CEF3400ED5F8B881C7F307270CF00F05DD
:10170000360CC2E903E5C2E9056783F80080026888
:101710002244D2F8B821120A5A7002682244D2F840
:10172000B821120C9A7002682244D2F8B821120E25
:10173000DA7002682244D2F8BC211A71026822448D
:10174000D2F8BC21120A5A7102682244D2F8BC2194
:10175000120C9A7102681444D4F8BC21120EDA718A
:10176000026879B9D36843F020030846D360A1E743
:10177000EC68A607A6D1436A43F400134362012034
:10178000BDE8F081136943F020031361002091E765
:10179000D6F8B071FF085760A1E700BF90F820307D
:1017A000013B012B05D9436A43F4802343620120A6
:1017B000704702685369194351610020704700BFA8
:1017C000704700BF704700BF704700BF704700BF41
:1017D000704700BF704700BF704700BF704700BF31
:1017E000704700BF704700BF704700BF704700BF21
:1017F0002DE9F84F03685C69D3F804809F68D3F83B
:101800000CB0D3F81090D3F818A014F001060546D8
:1018100025D017F0010640F09C804FF400524FF4A1
:101820008041F8050DD52B684FF480709860BB059A
:1018300000F1C780780500F1D7803A0540F1E880D3
:101840000E46FB030BD52B684FF48032B8039A6029
:1018500000F1B380790340F1C98046F400462307C4
:1018600002D51BF0100F6ED1670702D51BF0080FD1
:101870007FD1A00704D52B68DB68990740F08E80E4
:10188000620602D519F0100F57D1A30603D519F03F
:10189000080F40F08780E70604D52B681B6998077E
:1018A00040F08780A10302D518F0100F68D1E20341
:1018B00002D518F0080F6AD1230435D518F0040FAB
:1018C0002B682FD0E70504D51AF0010F18BF46F09A
:1018D0000106A00504D51AF0020F18BF46F0020653
:1018E000610504D51AF0040F18BF46F0040622055E
:1018F00018D51AF0700A15D0BAF1300F00F09680A2
:1019000079D9BAF1500F00F08E80BAF1600F00F073
:101910009080BAF1400F01D146F040069A6922F05A
:1019200070029A6104225A602EB16B6A1E436E6285
:101930002846FFF75BFFBDE8F88F2B68102246F4BE
:1019400080661A61A1E72B68102246F40076DA60FF
:101950008AE701229A60BB0737D47E073DD417F08F
:10196000080659D04FF440524FF4A0414FF480562E
:1019700057E72B680822DA602846FFF72DFF78E743
:101980002B6810225A602846FFF72CFF8FE72B6840
:1019900008225A602846FFF727FF8DE7284602F005
:1019A0006BF96DE72B6808221A612846FFF718FFCC
:1019B00071E72846FFF712FF74E72846FFF704FF98
:1019C0004DE72846FFF7FEFE3BE7FFF7F9FE00264E
:1019D0004FF400524FF4804123E74FF420524FF46C
:1019E00090414FF400661CE716462AE73A030BD5F0
:1019F00046F4803633E7BAF1100F1DD0BAF1200F4C
:101A00008CD146F0100689E72846FFF7E3FE26E76B
:101A10002846FFF7DDFE14E7FFF7D8FE4FF400522B
:101A20004FF48041FDE646F0800677E746F0200659
:101A300074E746F4807671E746F008066EE700BF6B
:101A4000074AD3684FF6FF010B40000243F0BF6323
:101A500000F4E06043F400330343D360704700BFF9
:101A600000ED00E0184BDB68C3F3022330B4C3F190
:101A70000705042D03F1040428BF0425062C19D9F9
:101A8000033B4FF0FF349C4022EA04044FF0FF3246
:101A9000AA4021EA020101FA03F2224312010028BE
:101AA000D2B20ADB00F1604000F5614080F800230B
:101AB00030BC704700242346E8E7044B00F00F00D9
:101AC00003441A7630BC704700ED00E0FCEC00E007
:101AD000002807DB00F01F0101234009024A8B4068
:101AE00042F82030704700BF00E100E00138B0F15B
:101AF000807F0ED2084B10B4084C5860F02084F858
:101B000023000022072110469A6019605DF8044BFB
:101B100070470120704700BF10E000E000ED00E0DA
:101B200090F83530022B03D08023436501207047A5
:101B30000268052380F83530136823F00103136031
:101B4000002070472DE9F04FDFF860C2DFF86082B7
:101B5000D1F800E083B0002503E00135102D00F03E
:101B6000A4800123AB400EEA0304A342F5D14E68E2
:101B700026F0100ABAF1020F00F09A804FEA4509E8
:101B80000322D0F800B002FA09F2D24306F00307AC
:101B900002EA0B0B07FA09F70AF1FF3A47EA0B07CB
:101BA000BAF1010F076040F2A980C7688B683A401C
:101BB00003FA09F31343C360F300CED50023019366
:101BC000D8F8443043F48043C8F84430D8F844305F
:101BD00025F0030202F1804203F4804302F59C32B7
:101BE000019305F00307019BD2F80890BF000F2373
:101BF000BB4029EA030A674B98422ED003F5806365
:101C0000984200F08E80644B984200F09180634BC4
:101C1000984200F09480624B984200F09780614BAC
:101C2000984200F0A180604B984200F0A480DFF859
:101C30008491484500F09180DFF87C91484500F0A0
:101C4000A180DFF8789148450CBF4FF009094FF0AB
:101C50000A0909FA07F74AEA070AC2F808A0DCF8F5
:101C60000030E243F70354BF13402343CCF8003065
:101C7000DCF80430B70354BF13402343CCF80430DE
:101C8000DCF80830F70254BF13402343CCF8083087
:101C9000DCF80C30B60205F1010554BF13402343B4
:101CA000102DCCF80C307FF45CAF03B0BDE8F08FA2
:101CB0004FEAD50900EB890905F00707D9F820207C
:101CC000BF004FF00F0B0BFA07FB22EA0B0A0A6961
:101CD000BA4042EA0A02C9F820204FEA4509032225
:101CE000D0F800A002FA09F2D24306F0030702EA94
:101CF0000A0A07FA09F747EA0A070760876807EA46
:101D0000020ACF6807FA09F747EA0A078760D0F89E
:101D100004A0C6F300172AEA0303AF401F4347603D
:101D200043E74FF0010909FA07F74AEA070A94E77F
:101D30004FF0020909FA07F74AEA070A8DE74FF060
:101D4000030909FA07F74AEA070A86E74FF0040988
:101D500009FA07F74AEA070A7FE74FF0070909FA85
:101D600007F74AEA070A78E74FF0050909FA07F783
:101D70004AEA070A71E74FF0060909FA07F74AEA43
:101D8000070A6AE74FF0080909FA07F74AEA070A5B
:101D900063E700BF0000024000080240000C024060
:101DA000001002400014024000180240003C0140B4
:101DB00000380240001C0240002002400024024083
:101DC0000369194214BF01200020704702B90904B9
:101DD00081617047436931EA030308BF09048161E7
:101DE000704700BF704700BF044A5169014200D1EB
:101DF000704708B55061FFF7F5FF08BD003C014092
:101E0000002800F032812DE9F0410368DD0782B03F
:101E100004462FD5AC498A6802F00C02042A00F06F
:101E2000EA808A6802F00C02082A00F0E080636809
:101E3000B3F5803F00F0E980B3F5A02F00F05481A6
:101E4000A14D2A6822F480322A602A6822F4802276
:101E50002A60002B40F0DE80FFF730F8064605E0F0
:101E6000FFF72CF8801B642800F2F2802B689B039C
:101E7000F6D423689F0775D41A0715D56369002B1C
:101E800000F0A580914B904D01221A60FFF716F8E3
:101E9000064605E0FFF712F8801B022800F2D88002
:101EA0006B6F9B07F6D5236858073BD5864A136CA2
:101EB00013F0805340F0DB800193136C43F08053A8
:101EC0001364136C03F080530193019B0126804D32
:101ED0002A68D10540F1AC80A368012B00F0C980CD
:101EE000052B00F00B81784D2A6F22F001022A6742
:101EF0002A6F22F004022A67002B40F0BF80FEF711
:101F0000DDFF41F28837804606E0FEF7D7FFA0EB01
:101F10000800B84200F29C802B6F9807F5D4002E81
:101F200040F0DC80A269CAB1674DA96801F00C01DC
:101F3000082948D0022A674A4FF00001116000F0DA
:101F4000E780FEF7BBFF2C46054604E0FEF7B6FF30
:101F5000401B02287CD823689B01F7D4002002B0E4
:101F6000BDE8F081584A916811F00C0F24D09168B7
:101F700001F00C0108291CD0E368002B00F09280CE
:101F8000554B514D01221A60FEF798FF064604E0BA
:101F9000FEF794FF801B02285AD82B689807F7D5C4
:101FA0002B68226923F0F80343EAC2032B602368FD
:101FB00062E752685602DFD4434A126895074BD550
:101FC000E268012A48D0012002B0BDE8F0813F4A12
:101FD0003D4D1360FEF772FF064604E0FEF76EFF0C
:101FE000801B022834D86B6F9F07F7D45BE74A68E1
:101FF00050027FF51CAF344A126891037FF53AAF67
:102000006268002A7FF436AFDDE72F4A136843F495
:1020100080331360FEF752FF2B4D064604E0FEF7B7
:102020004DFF801B642813D82B689A03F7D520E74F
:102030002A6842F480722A60FEF740FF07462B6848
:10204000DA053FF549AFFEF739FFC01B0228F6D984
:10205000032002B0BDE8F0811B4920690A6822F024
:10206000F80242EAC0020A6006E701207047002633
:102070002DE7154A136F43F001031367FEF71EFFA8
:10208000114D804641F2883705E0FEF717FFA0EBBF
:102090000800B842DCD82B6F9B07F6D5002E3FF422
:1020A00041AF1BE00C4A084D1360FEF707FF0646E0
:1020B00004E0FEF703FF801B0228C9D82B689907AC
:1020C000F7D42368D8E600BF00380240800E4742AC
:1020D000007000406000474200004742234A136CF2
:1020E00023F0805313641DE7204B1A6842F48022CA
:1020F0001A601A6842F480321A608BE71B4B1A6F21
:1021000042F004021A671A6F42F001021A67B5E73B
:10211000FEF7D4FE064604E0FEF7D0FE801B022840
:1021200096D82B689901F7D4D4E90736D4E9090287
:10213000E16A0E4C334343EA8013520843EA0163D9
:10214000013A0B4943EA024301226B600A60FEF741
:10215000B5FE054605E0FEF7B1FE401B02283FF63E
:1021600077AF23689A01F6D5F8E600BF0038024041
:1021700060004742174908B58B6803F00C03042B35
:102180001BD0082B17D14A684B6813F4800302F068
:102190003F0214D149681048C1F38811A1FB000126
:1021A000FEF7C4FC0B4B5B68C3F3014301335B00D8
:1021B000B0FBF3F008BD084808BD084808BD4B68EF
:1021C0000648C3F38813A3FB00010023FEF7AEFC0F
:1021D000E8E700BF003802400024F40000127A0053
:1021E00060B1484A136803F00F038B4208D2CBB2A8
:1021F0001370136803F00F038B4201D00120704766
:1022000003682DE9F0419D0714D55C0704D53E4CC9
:10221000A26842F4E052A2601A0704D53A4CA268C0
:1022200042F46042A260384C8568A26822F0F00255
:102230002A43A260DF0704460D4622D54268012AE0
:1022400056D0931E012B304B1B6858D9990725D5C2
:102250002D4EB36823F003031343B360FEF72EFE45
:1022600041F28837804605E0FEF728FEA0EB080023
:10227000B84242D8B368626803F00C03B3EB820F34
:10228000F2D1204A136803F00F03AB4209D9EBB235
:102290001370136803F00F03AB4202D00120BDE8B6
:1022A000F08123685A0706D51749E0688A6822F446
:1022B000E05202438A601B0711D4FFF75BFF124B09
:1022C00012499B68124AC3F30313CB5C20FA03F351
:1022D00000201360FEF7AAFD0020BDE8F0810A4A45
:1022E0002169936823F4604343EAC1039360E4E700
:1022F000054B1B689E03ABD4D0E70320EDE79801A4
:10230000A6D4CBE7003C0240003802409C4A0008BB
:1023100034010020044B054A9B680549C3F382231E
:102320000868D35CD840704700380240AC4A0008C7
:1023300034010020044B054A9B680549C3F342332E
:102340000868D35CD840704700380240AC4A0008A7
:102350003401002000285CD0F8B590F83D300446E8
:1023600003F0FF02BBB322683A4EA569E0686168DA
:10237000022384F83D30B24213684CD0B2F1804F52
:1023800058D0A6F57C46B2422AD006F58066B24205
:1023900026D006F58066B24222D006F57846B242D3
:1023A0001ED006F57056B24213D006F58066B242D2
:1023B0000FD006F58066B2420BD0A6F59836B24231
:1023C00007D006F58066B24203D006F58066B242B9
:1023D00038D1266933E080F83C2002F02DFAC2E7BC
:1023E000A6681D4F23F070033343266923F440731E
:1023F000334323F080032B43BA421360D0629162CF
:1024000001D16369136301235361002084F83D30D7
:10241000F8BD01207047A768266923F070033B438D
:1024200023F44073334323F080032B431360D062C3
:102430009162E6E7A768266923F070033B4323F423
:102440004073334323F080032B431360D0629162C7
:10245000D9E700BF0000014000040140002800F05F
:10246000968090F83D302DE9F04103F0FF020446DC
:102470000D46002B3FD02368564ED4F818C0E068B4
:102480006168022284F83D209A6822F4804222F09A
:1024900007029A60B3421A687BD0B3F1804F00F014
:1024A0008880A6F57C46B3422AD006F58066B34202
:1024B00026D006F58066B34222D006F57846B342B0
:1024C0001ED006F57056B34213D006F58066B342AF
:1024D0000FD006F58066B3420BD0A6F59836B3420E
:1024E00007D006F58066B34203D006F58066B34296
:1024F00067D1266962E080F83C2002F017F9BAE75C
:10250000A668354F22F070023243266922F44072E9
:10251000324322F0800242EA0C02BB421A60D862C7
:10252000996201D162691A634FF0010CC3F814C0BB
:1025300098689E69AF69A9682A69D5F800E026F411
:102540004078EE6941EA07211201EF6842EA06226B
:102550003A432F6A1E6A28F0030841EA080142EA5A
:1025600007326F696D6821F47C4121F0FC0126F08F
:10257000AA0645EA071540EA0E000A43354398606B
:102580009A6100201D6284F83DC0BDE8F081012001
:102590007047A768266922F070023A4322F440721D
:1025A000324322F0800242EA0C021A60D862996239
:1025B000B8E7A768266922F070023A4322F4407215
:1025C000324322F0800242EA0C021A60D862996219
:1025D000AAE700BF00000140000401400368C1B148
:1025E00004290DD11A6A22F010021A621A6A42F006
:1025F00010021A621A6842F001021A600020704745
:102600001A6A22F001021A621A6A42F001021A6280
:10261000E8E71A6A22F001021A621A6A42F001021D
:102620001A62E7E7704700BF704700BF704700BFFE
:10263000704700BF704700BF03681A69910710B563
:10264000044602D5DA6892075FD41A69500702D5AA
:10265000DA68510746D41A69120702D5DA681007FA
:102660002ED41A69D20602D5DA68D00618D41A69AF
:10267000D10702D5DA68D2075DD41A69100602D5EF
:10268000DA6811065FD41A69520602D5DA68500674
:1026900061D41A69910602D5DA68920643D410BD56
:1026A0006FF010021A61DB69082213F4407F227771
:1026B000204664D0FFF7BAFF002223682277D6E7CE
:1026C0006FF008021A61DB6904229907227720461D
:1026D00052D1FFF7A9FF2046FFF7AAFF0022236887
:1026E0002277BEE76FF004021A619B69022213F49D
:1026F000407F227720463CD1FFF796FF2046FFF728
:1027000097FF002223682277A5E76FF002021A6183
:102710009B6901229B07027725D0FFF787FF0022E4
:102720002368227791E76FF0200220461A61BDE806
:10273000104000F04DB86FF001021A612046FFF71B
:1027400071FF236899E76FF080021A61204600F05C
:1027500041F8236897E76FF040021A612046FFF7BF
:1027600069FF236895E7FFF75FFF2046FFF760FFEB
:10277000D5E7FFF75BFFC4E7FFF758FFAEE7FFF7CA
:1027800053FF2046FFF754FF96E700BF90F83C2028
:10279000012A1AD070B40222046880F83D20D1E9E1
:1027A000006503466068A26820F0700122F0800294
:1027B00031432A430126002561602846A26083F840
:1027C0003D6083F83C5070BC70470220704700BFEA
:1027D000704700BF704700BF002800F004812DE95A
:1027E000F84390F83930044603F0FF02002B00F064
:1027F000F58023682669242284F83920D86820F4DB
:102800000050D4E90225D8601969E06921F44051EB
:1028100029431961D9686569324321F416412A4375
:1028200021F00C0102430A43DA605A69A16922F4DB
:1028300040720A43B0F5004F5A61AA4A71D09342E0
:1028400000F0D38002F58062934200F0CE80FFF763
:1028500061FDA54F636800EB800000EB80009B00EA
:10286000B0FBF3F3A7FB03235B091D01FFF752FD48
:10287000666800EB800000EB8000B600B0FBF6F667
:10288000FFF748FD636800EB800000EB80009B00D1
:10289000B0FBF3F3A7FB03235B094FF0640909FBCB
:1028A00013631B013233A7FB03235B0903F0F0061C
:1028B000FFF730FD626800EB800000EB80009300C2
:1028C000B0FBF3F8FFF726FDD4E9002100EB800010
:1028D0008B0000EB8000B0FBF3F3A7FB03135B0955
:1028E00009FB13831B013233A7FB0313C3F3431309
:1028F00033432B449360136923F49043136153696A
:1029000023F02A035361D3680025202143F40053A8
:10291000D3602846E56384F8391084F83A10BDE89E
:10292000F883934200F09F8002F58062934200F0AA
:102930009A80FFF7EFFC6C4F636800EB800000EBC0
:1029400080005B00B0FBF3F3A7FB03235B091E01D0
:10295000FFF7E0FC656800EB800000EB80006D0095
:10296000B0FBF5F5FFF7D6FC636800EB800000EBE9
:1029700080005B00B0FBF3F3A7FB03235B094FF080
:10298000640909FB1353DB003233A7FB03231B0944
:1029900003F4F875FFF7BEFC626800EB800000EB03
:1029A00080005300B0FBF3F8FFF7B4FCD4E900213A
:1029B00000EB80004B0000EB8000B0FBF3F3A7FBC3
:1029C00003135B0909FB1383DB003233A7FB0313FB
:1029D000C3F3421333442B4493608CE780F83820D0
:1029E00001F066FF05E701207047FFF7A3FC3E4FAB
:1029F000636800EB800000EB80009B00B0FBF3F30A
:102A0000A7FB03235B091D01FFF794FC666800EB3D
:102A1000800000EB8000B600B0FBF6F6FFF78AFC02
:102A2000636800EB800000EB80009B00B0FBF3F3D9
:102A3000A7FB03234FF064095B0909FB13631B0128
:102A40003233A7FB03235B0903F0F006FFF772FCA8
:102A5000626800EB8000930000EB8000B0FBF3F8AD
:102A6000FFF768FC30E7FFF765FC1F4F636800EB7A
:102A7000800000EB80005B00B0FBF3F3A7FB0323B7
:102A80005B091E01FFF756FC656800EB800000EB58
:102A900080006D00B0FBF5F5FFF74CFC636800EBC0
:102AA000800000EB80005B00B0FBF3F3A7FB032387
:102AB0004FF064095B0909FB1353DB003233A7FBBA
:102AC00003231B0903F4F875FFF734FC626800EB7D
:102AD0008000530000EB8000B0FBF3F8FFF72AFC06
:102AE00064E700BF001001401F85EB51704700BF35
:102AF000704700BF10B584680169836A0268B4F545
:102B0000805F20D05C1C52688462C9B91A70C38D82
:102B1000013B9BB2C3858BB90268D16821F02001CB
:102B2000D160D16821F48071D1605169202421F0F5
:102B30000101516180F83A40FFF7DAFF002010BD33
:102B400002F07F02E2E7526829B9C2F3080223F8D3
:102B5000022B8362DBE7D2B223F8012B8362D6E734
:102B6000704700BF03681A6870B51607DD685969B9
:102B7000044649D011F001014FD0D60705D5E8052C
:102B800003D5E06B40F00100E063560702F002005D
:102B900075D561B1E16B41F00201E16302F0080615
:102BA000002871D11EB1E16B41F00801E163E16BD6
:102BB000002931D0960601D5A80673D45D69E16B72
:102BC000090702D415F0400579D0DA6822F4907232
:102BD000DA605A69202122F001025A6184F83A1021
:102BE0005A6952065AD55A69606B22F040025A61FE
:102BF000002853D03A4B0365FEF792FF60B1606B3B
:102C0000BDE87040036D1847960609D5A90607D59B
:102C100090F83A30222B4ED070BD15F4907FACD195
:102C200016060ED45106F7D56A06F5D5DA682021C6
:102C300022F04002DA60204684F83910FFF756FF90
:102C400070BD2806EED594F83920212AE4D1A16878
:102C5000226AB1F5805F37D0511C216212785A6028
:102C6000E28C013A92B2E284002AD5D1DA6822F0ED
:102C70008002DA60DA6842F04002DA6070BD40B18A
:102C8000002994D002F00806E16B41F00401E163F1
:102C900088E710078BD5002985D188E72046FFF704
:102CA0005FFF70BD94F83A20222A87D12046FFF7B3
:102CB00021FF236882E7BDE87040FFF71BBF204675
:102CC000FFF74EFFE56370BD11882069C1F308016D
:102CD000596010B902322262C2E701322262BFE7B4
:102CE000E52C000808B5836B0022DA851846DA84E3
:102CF000FFF736FF08BD00BFF8B50026C6740968A7
:102D0000B1F5A17F00D0F8BD0746144604212C4838
:102D10001D46FFF75FF8BE7422786078A378E778E5
:102D200040EA022000B247EA0327FDF7B3FB20A3E5
:102D3000D3E90023FDF718FC3FB2C5E9000138468E
:102D4000FDF7A8FB1CA3D3E90023FDF70DFCC5E9A3
:102D5000040123791B09032B12D0042B20D0022B52
:102D600016D085F83A6085F8386085F83960A3791F
:102D700085F84530E37903F0010385F84430F8BD68
:102D8000012385F83A6085F8396085F83830EEE738
:102D9000012385F8386085F8396085F83A30E6E730
:102DA000012385F83A6085F8386085F83930DEE728
:102DB00084255BB34EC2803F70FD4CA119E2793F80
:102DC00000100240000000002DE9F047D3E900891F
:102DD0009A4605460C4616464046494600220023C0
:102DE000FDF748FE002843D00022314B40464946BB
:102DF000FDF7BAFB2CA3D3E90023FDF7DFFC41EC80
:102E0000100B01F0C1FD51EC100BFDF76FFE00221D
:102E100087B2380A1146FFB2002360F3070367F355
:102E20000F2361F3174362F31F6300222360A27133
:102E30009AF83B209AF839E01E4F9AF838109AF821
:102E40003C3097F800C01C48920042EA4E020A4308
:102E500042EAC3028CF0010CA27184F807C0334629
:102E60002946224687F800C0BDE8F047FEF7BEBB02
:102E7000074600220E4B404609F10041FDF774FB66
:102E800009A3D3E90023FDF799FC41EC100B01F0F5
:102E90007BFD51EC100BFDF729FE80B2010AC2B296
:102EA0003846B9E7AFF30080FCA9F1D24DC24040EB
:102EB0000000B04008000020EC02002000000000EC
:102EC0002DE9F04F85B015460E9C03941C460F9BD0
:102ED000029100228246D3E90C01594B119F139EA7
:102EE000FDF742FB41EC100B01F04EFD51EC100BD5
:102EF000FDF7D4FD0022534B0FFA80F8D7E900010B
:102F0000FDF732FB41EC100B01F03EFD51EC100BD4
:102F1000FDF7C4FD00224C4B07B2D6E90201FDF7D4
:102F200023FB41EC100B01F02FFD51EC100BFDF7D2
:102F3000B5FD0022444B0FFA80FBD6E91401FDF7E2
:102F400013FB41EC100B01F01FFD51EC100BFDF7D2
:102F5000A5FD00B238A3D3E900230090D6E90A0109
:102F6000FDF702FB41EC100B01F00EFD51EC100BD4
:102F7000FDF794FD00220FFA80FC334BCDF804C01E
:102F8000D6E90E01FDF7F0FA41EC100B01F0FCFC64
:102F900051EC100BFDF782FD00222C4B0FFA80F94B
:102FA000D6E91201FDF7E0FA41EC100B01F0ECFC60
:102FB00051EC100BFDF772FD0FFA80FCB36E6F70D1
:102FC0004FEA2C204FEA2B224FEA292E3F122F7076
:102FD00085F803C0A87085F805B02A7185F80790B8
:102FE00085F806E02A46019D019F00986570009DC6
:102FF000174EE570039DE3714FEA272C51460712E7
:1030000043F3072A4FEA282020712B4684F800C09A
:10301000A77084F8058084F806A03046FEF7E6FA2B
:1030200002992B462246304605B0BDE8F04FFEF728
:10303000DDBA00BFAFF30080000000000088C3408D
:1030400000407F40000079400000494000005940A6
:10305000EC020020000000002DE9F04F91B08A46FC
:103060000F92D2E90023044619461046FDF7C6F830
:103070000FF20843D3E9002306460F46D4E90601C0
:10308000FDF79CFB80468946D4E90C010AF16004F7
:1030900094E83008F9A3D3E900230E95FDF78EFBE1
:1030A0009AED007B8DED047B9AED147B8DED027B18
:1030B0009AED167BCDE90C01013400220023404635
:1030C000494601948DED067BFDF7B6FC002840F0E3
:1030D0002B8142464B4640464946FDF745FA42465B
:1030E0004B46CDE90801FDF73FFAE6A3D3E90023FB
:1030F000FDF73AFAE5A3D3E9002304460D46DDE9DE
:103100000801FDF731FA02460B4620462946FDF735
:1031100073F8E0A3D3E9002304460D464046494630
:10312000FDF722FA02460B4620462946FDF766F8CF
:10313000DAA3D3E90023FDF761F89FEDBB7BCDE96E
:1031400008018DED0A7BDAE90245DDE90C01CAE9E7
:103150000445D4A3D3E90023FDF706FAD3A3D3E9AA
:103160000023CDE90C0140464946FDF7FDF9024632
:103170000B46DDE90C01FDF73FF8DDE90A23FDF719
:103180003BF8DDE90823FDF737F832463B46FDF70B
:1031900035F8BAA3D3E90023FDF710FB22462B46EE
:1031A00080468946FDF728F8C2A3D3E900230446E8
:1031B0000D46FDF703FBDDE90423CDE90A013046A6
:1031C0003946FDF719F802460B4620462946FDF719
:1031D000F5FADDE90245CDE90C0100220023204685
:1031E0002946FDF751FC002800F0EB8042464B4693
:1031F00020462946FDF700F822462B46FDF7DEFA69
:10320000CDE9080100229A4BDAE91201FDF71EFC14
:10321000019B0E9A9C1A4FF0010300B90346BBF1C3
:10322000010F14BF002303F00103002B43D0142C23
:1032300041DD019B0E93DDE904017DA3D3E9002369
:10324000FCF7DCFF4FF0020B06460F46002200237E
:1032500030463946FDF7FAFB002840F0AD800022E9
:10326000844B30463946FDF77FF99DED087B8AEDAA
:103270000A7B9DED0A7B8AED0C7B9DED0C7B8AED34
:10328000107B9DED027B0F9BCAF868B0CAE900670E
:10329000CAE90289C3E90001019BCAF860308AEDDE
:1032A000147B9DED067B0E9BCAF864308AED167B7D
:1032B00011B0BDE8F08F704B0022DAE90E01FDF786
:1032C000C5FB4FF00103002835D0BBF1020F14BF3E
:1032D000002303F00103002B36D0032C34DD9DEDD9
:1032E000047BCDE902898DED067B019B0E9352A3F1
:1032F000D3E90023DDE90601FDF736F9DDE90445F0
:1033000002460B4620462946FCF776FF4CA3D3E93C
:103310000023FDF729F922462B46FCF76FFF4FF0FB
:10332000030B06460F4691E79FED477B8DED0A7B29
:103330008DED087B07E70346BBF1020F14BF0023A6
:1033400003F00103002BC8D1ABF10303B3FA83F3FD
:10335000052C4FEA5313D8BF0023002B36D03CA3D3
:10336000D3E90023DDE90801FDF78EFB4FF00103EF
:1033700000B9034613F0FF0F28D0019B0E9336A32C
:10338000D3E90023DDE90601FDF7EEF8DDE90445A8
:1033900002460B4620462946FCF72EFF30A3D3E910
:1033A0000023FDF7E1F822462B46FCF727FF4FF0FC
:1033B000040B06460F4649E70026002730463946EB
:1033C00053E79FED217B8DED087B1BE7ABF10403F9
:1033D000B3FA83F30A2C4FEA5313D8BF00236BB11F
:1033E00021A3D3E90023DDE90801FDF72FFB4FF00E
:1033F000010398B113F0FF0F7FF41BAF0BF1FF3304
:10340000032B0DD801A252F823F000BF4D32000863
:1034100037320008EF3200087F3300080346E9E73F
:10342000DDE9046712E700BFF6285C8FC2F5E43FD0
:103430009A9999999999A93F666666666666E63F84
:10344000A0ED827CA34EB1BF000000000000000090
:10345000333333333333C33F9A9999999999F13F71
:10346000D8CBDDA9A5AEB3BF7B14AE47E17A943FBC
:10347000000010400000E03F0000494036AB3E57DE
:103480005BB1BF3F20345053AAC8913ED2FBC6D790
:103490009E59123F355F251FBB0B543F2575029A7D
:1034A000081BE23FAAF1D24D621098BF39B4C8762A
:1034B000BE9F8A3F7B14AE47E17A843F0000000044
:1034C0000378002B00F092802DE9F04FD0E90467DB
:1034D00085B0D0E908AB002200230D4604463946EA
:1034E00030468DED000BFDF73FF832463B46FDF7C9
:1034F0003BF8002280468946574B50465946FDF717
:1035000033F802460B4640464946FCF777FE002258
:1035100080468946514B30463946FDF797FA0028D8
:1035200065D14046494646A3D3E90023FCF766FE31
:10353000804689460022002330463946FDF77CFA52
:1035400038B15046594600220023FDF775FA00288D
:103550005BD14046494600220023FDF705F8CDE93E
:103560000201D4E9022330463946FCF745FEDDE985
:10357000002382468B46FCF7F7FFD4E90A23FCF7C9
:103580003DFED4E90E23CDE9000150465946FCF733
:10359000EBFFD4E9102380468946DDE90001FCF702
:1035A000E3FF02460B4640464946FCF727FE9DEDE9
:1035B000007B8046894684ED0A7BC4E90CAB30462B
:1035C00039460022254BFDF741FA18BBDDE90223FD
:1035D00040464946FCF712FE1BA3D3E90023FCF743
:1035E000C3FFC5E9000105B0BDE8F08F704714A323
:1035F000D3E9002330463946FCF7B6FF42464B4636
:10360000FCF7FCFD8046894694E79FED117B8DED2C
:10361000027BA6E75046594600220023FDF716FA22
:103620000028D3D00022002340464946FDF72CFA5B
:103630000028CBD04FF000084FF00009C6E700BFCC
:10364000333333333333C33F3E1AF3DF281EC03FD7
:10365000000000000000000000002E400000F03FCD
:10366000D0B5D1E9006784B00C4632463B46D0E97C
:1036700000018DED001B8DED020BFCF7BDFD9DEDF6
:10368000020B53EC102BFDF799F89DED001B53EC4A
:10369000112BFCF769FF32463B46FCF7AFFDC4E94E
:1036A000000104B0D0BD00BFD0B50446D4E9066720
:1036B00084B0D0E9040132463B46C4E908678DED89
:1036C000001B8DED020BFCF797FD9DED020B53ECFB
:1036D000102BFDF773F89DED001B53EC112BFCF73D
:1036E00043FF32463B46FCF789FDC4E9060104B0BE
:1036F000D0BD00BFD0B5D0E90C6784B004463246D7
:10370000D0E90A013B468DED001B8DED020BFCF765
:1037100073FD9DED020B53EC102BFDF74FF89DED63
:10372000001B53EC112BFCF71FFF32463B46FCF706
:1037300065FDC4E90C0104B0D0BD00BFD0B5D0E92F
:10374000026784B004463246D0E900013B468DED65
:10375000001B8DED020BFCF74FFD9DED020B53ECB2
:10376000102BFDF72BF89DED001B53EC112BFCF7F4
:10377000FBFE32463B46FCF741FDC4E9020104B0C2
:10378000D0BD00BF000000002DE9F04F3C4A3D4B8A
:10379000546ADFF8F8A01C60B4F57A7F85B005465E
:1037A000DAF800B057EC106B3BD24FF617439B454D
:1037B00037D9CBF57F40FF30FCF75CFE80462046D2
:1037C0008946FCF757FE02460B4640464946FCF741
:1037D00015FD32463B46FCF7F1FF27A3D3E9002352
:1037E000FCF7C2FEC5E900016C622748CAF8004038
:1037F000FDF71CFC244E6C4604AF05213046FDF756
:10380000B1FC3046FDF700FD44F8040BA742F4D1AB
:103810001D48FDF789FC009B85F82C3005B0BDE8FC
:10382000F08F5846FCF726FEBBF57A7F8046894626
:1038300017D24FF617439C4213D9C4F57F40FF308F
:10384000FCF718FE42464B46FCF7D8FC324607F11F
:103850000043FCF7B3FF08A3D3E90023FCF784FE81
:10386000C0E72046FCF706FE42464B46FCF7C4FC88
:10387000AFE700BFAFF3008052263E54FB21493F23
:103880000004004094020020A402002098020020BE
:1038900010B52B4B2B492C4A196084B04FF4803063
:1038A0004FF000710424586099609A62012100224F
:1038B0001846DC6119611976596183F8202000925D
:1038C000DA62DA6083F83020CDE901220392FDF755
:1038D000FBFA90BB0A240122002369461848029390
:1038E000CDE90042FDF794FC20BB0B220223694680
:1038F0001348CDE90023FDF78BFCC0B90C2203234C
:1039000069460F48CDE90023FDF782FC60B90D221E
:10391000042369460A48CDE90023FDF779FC08B184
:1039200000F0B2FD04B010BD00F0AEFDEFE700F016
:10393000ABFDE3E700F0A8FDD7E700F0A5FDC9E780
:10394000A4020020002101400100000F10B5016811
:10395000154A88B000239142CDE90333CDE9053300
:10396000079301D008B010BD104A0193516C104864
:1039700041F400715164516C01F40071019101999D
:103980000293136B43F004031363136B03F00403FC
:1039900002930F22032303A9029CCDE90323FEF720
:1039A000D1F808B010BD00BF00210140003802402E
:1039B0000008024038B50D4B0D4A1A60002214254C
:1039C0004FF440244FF4801118469A615D60C3E9BA
:1039D0000441C3E902221A775A77FDF7D1FC00B9F6
:1039E00038BDBDE8384000F04FBD00BFEC020020FC
:1039F0000064004070B50268234B88B000249A42EE
:103A0000CDE90344CDE90544079401D008B070BD69
:103A100003F5EA3301941A6C1C4842F000721A64F0
:103A20001A6C02F000720192019A02941A6B42F031
:103A300008021A631B6B03F00803029303A9032314
:103A400009220225039306930792029E0495FEF72E
:103A500079F8224601211320FEF704F81320FEF71F
:103A600037F8224601211420FDF7FCFF1420FEF751
:103A70002FF8224601211620FDF7F4FF1620FEF74D
:103A800027F808B070BD00BF00640040000C024081
:103A90002DE9F04F00248FB0CDE90944CDE90B4466
:103AA0006D4B01940D941A6BDFF8C481DFF8C4915B
:103AB0006A4E6B4F42F010021A631A6B02F010024A
:103AC0000192019A02941A6B42F004021A631A6B73
:103AD00002F004020292029A03941A6B42F020024E
:103AE0001A631A6B02F020020392039A04941A6B71
:103AF00042F080021A631A6B02F080020492049A68
:103B000005941A6B42F001021A631A6B02F001026B
:103B10000592059A06941A6B42F040021A631A6BDA
:103B200002F040020692069A07941A6B42F00202D3
:103B30001A631A6B02F002020792079A08941A6B32
:103B400042F008021A631B6B03F008030893224635
:103B500040460421089BFEF739F9224648468F214A
:103B6000FEF734F9224630464CF23001FEF72EF9CA
:103B700022463846FC21FEF729F901223046C021B1
:103B8000FEF724F901254FF0040A09A94046CDE9C2
:103B90000B44CDE909A5FDF7D5FF404609A946F23A
:103BA0000B030993CDE90A44FDF7CCFF2D4B2E48BA
:103BB0000B944FF4005209A9CDE909234FF0020BF1
:103BC000FDF7C0FF09A931232848CDF82CB0CDE975
:103BD0000934FDF7B7FF484609A98F230993CDE9BA
:103BE0000A540C94FDF7AEFF09A930464CF230039D
:103BF00009934FF00308CDE90A540C94FDF7A2FF96
:103C00004FF4407209A9384607230992CDE90C8385
:103C1000CDF828B00B94FDF795FF384609A9FC2391
:103C20000993CDE90A540C94FDF78CFFC02309A930
:103C300030460993CDE90A54CDF83080FDF782FF74
:103C4000224651462820FDF70DFF2820FDF740FFB2
:103C50000FB0BDE8F08F00BF003802400004024002
:103C6000000C024000001110000802400014024045
:103C7000001002400018024010B5064C064AA16828
:103C800006482346FDF70AFD10B9012384F82330C6
:103C900010BD00BF5801002090030020EC0200205E
:103CA00070B5002494B0CDE90B44CDE90944CDE9C9
:103CB0000444CDE906441D4A01940D940394116C0B
:103CC0001B4B41F080511164126C02F08052019242
:103CD000019A02941A6842F440421A601B680F94D9
:103CE00003F4404302930122102302250821029885
:103CF0000B920C93A022072308A810911192139302
:103D000008950E9512950F26FEF77AF84FF4A052FB
:103D10004FF4805303A80521049505940396CDE93B
:103D20000623FEF75DFA14B070BD00BF00380240F4
:103D300000700040000000002DE980488BB0FDF7C6
:103D400097F8FFF7ADFFFFF7A3FE00F095FDFFF733
:103D50009FFDFFF72FFE00F0B7FC00F05BFC00F0CA
:103D600027FC00F089FCC04BC048C14DDFF84CB3C4
:103D700000245C623C21FEF731FCBE4ABE4B116858
:103D80001C6141F001011160D168BC48DC6141F067
:103D90000101D1604FF42157012219464FF4195601
:103DA0005C61C3E900769A611A62FDF76BFBB34868
:103DB000FDF7EEFB0221B148FDF7F0FCAF48FDF73F
:103DC00017FD9FED9F8B9FEDA0BB9FEDA19B05F184
:103DD000380705F1B80405F170090BF160080BF51F
:103DE000807A9FED9DAB03E095F82330002B62D1E4
:103DF00095F82830012BF7D1EB6A01330022092B0B
:103E000085F8282000F38782EB62B0EE480AF0EED6
:103E1000680A9B48FFF7B8FC95F86860032E10D835
:103E2000DFE816F052004E017000040004219548AE
:103E30000022FDF7CBFF40219348FDF7CBFF95F81B
:103E40006860924B92492E6603F10802CDE904B8EE
:103E5000CDE90247CDE900A901F11800FFF730F8DC
:103E600095F8AD30002BBFD08A4B8B4A03F15C0133
:103E7000101DFEF7A9FF894B1870002840F05082F2
:103E800095F8B5301D2B04BF002385F8AD3095F8AB
:103E900022300133DBB2092B85F82230A4D901226C
:103EA00080217948FDF792FF002385F8AD3095F821
:103EB0002330002B9CD07A4B7A49A3F17002A3F1F6
:103EC0006000FEF719FF8CE795F869300133DBB22B
:103ED000092B00F25E8285F869302B6B0A2B00F308
:103EE0005282D5F8B02095F8AD300132013BC5F8CB
:103EF000B020032B00F29082DFE813F08701EE017F
:103F0000CF01B10195F869300133DBB20A2B00F221
:103F1000488285F86930D5F8003101333B2BC5F86C
:103F2000003119DD4EA3D3E90023D5E92E01FCF7BA
:103F300063F900225C4BCDE90601FCF787FD002800
:103F400040F03C829DED067B85ED2E7B514A574922
:103F5000A2F14800FFF780F8B0EE481AF0EE681AB8
:103F6000B0EE490AF0EE690A4D4885ED2EBBFFF729
:103F70009BFBB0EE481AF0EE681AB0EE490AF0EE7C
:103F8000690A4748FFF7DAFBD5E92423D5E922017E
:103F9000FCF732F953EC182BFCF710FCB0EE481A82
:103FA000F0EE681AB0EE490AF0EE690AC5E926019A
:103FB0003B48FFF79FFBB0EE481AF0EE681AB0EEF0
:103FC000490AF0EE690A3A49A1F10800FFF748FBF7
:103FD000B0EE481AF0EE681AB0EE4A0AF0EE6A0A3D
:103FE0003449A1F10800FFF73BFB012204212548D9
:103FF000FDF7ECFED5F8B0302F4801332021C5F88D
:10400000B030FDF7DDFED5F8B030322BD4BF002044
:1040100000F0010000283FF412AF00261948C5F84F
:10402000B06032460123042185F86830FDF7CEFEEA
:10403000324680211448FDF7C9FE95F8686000E714
:104040007B14AE47E17A843F0000000000000000CE
:104050009A9999999999A93F333333333333B33FBD
:104060009A9999999999C93F00040040EC0300205E
:10407000580100200014004018030020EC0200202A
:104080009001002000180240000C02405C02002059
:10409000E000002010020020100100206403002036
:1040A000C80100209003002000003CC070000020E8
:1040B000B8000020A80000200014024010000020DA
:1040C00095F869300133DBB20A2B00F2548185F890
:1040D000693095ED227B0022C34B51EC170B8DED1F
:1040E000067BFCF7B3FC002840F02081B6A3D3E99F
:1040F0000023D5E92E01FCF781F80022BB4BCDE966
:104100000601FCF7C1FC002840F053819DED067BC1
:1041100085ED2E7BB64AB749A2F14800FEF79CFF19
:10412000B0EE481AF0EE681AB0EE490AF0EE690AED
:10413000B148FFF7B9FAB0EE481AF0EE681AB0EEDF
:10414000490AF0EE690AAC48FFF7F8FAD5E92423EA
:10415000D5E92201FCF750F853EC182BFCF72EFBA5
:10416000B0EE481AF0EE681AB0EE490AF0EE690AAD
:10417000C5E92601A048FFF7BDFAB0EE481AF0EEF7
:10418000681AB0EE490AF0EE690A9C49A1F10800EC
:10419000FFF766FAB0EE481AF0EE681AB0EE4A0A77
:1041A000F0EE6A0A9649A1F10800FFF759FA0122D8
:1041B00020219448FDF70AFED5F8B030924801332B
:1041C0002021C5F8B030FDF7FBFD904B06460022DC
:1041D000D5E92201FCF758FCD5F8B03000280CBF17
:1041E000304646F00100322BD4BF002000F0010021
:1041F00000283FF424AE00263246022320218148C5
:10420000C5F8B06085ED2EBB0EE7012220217D4868
:10421000FDF7DCFDD5F8B020642AC4BF012385F882
:10422000F43095F8AA30C82AD4BF002303F0010364
:10423000002B40F0148120217348FDF7C1FD95F853
:10424000AD30002B14BF002000F0010000283FF427
:10425000F6AD012385F8AD3095F86860F1E50122EF
:1042600008216B48FDF7B2FD20216748FDF7A8FD46
:10427000D5F8B030322BD4BF002300F00103002B5F
:10428000D9D0002301261A4608216148C5F8B0306C
:1042900085F86860FDF79AFDCDE701231A464021B5
:1042A000584885F8F030FDF791FDD5F8B02095F825
:1042B000A830642AD4BF002303F00103002BBAD036
:1042C000002304261A4640214E48C5F8B03085F830
:1042D000AD60FDF77BFDAEE701231A4604214C4893
:1042E00085F8F330FDF772FDD5F8B02095F8AA30C7
:1042F000642AD4BF002303F00103002B9BD00023CA
:1043000003261A4604214248C5F8B03085F8AD604E
:10431000FDF75CFD8FE72B6BEA6201332B6374E5DD
:10432000012280213748FDF751FDA9E501238BF8D3
:104330000030DBE9040126A3D3E90023FBF75EFF8D
:1043400000224FF08043CDE90801FCF79DFB0028D7
:1043500040F080809DED087B8BED047BB0EE480A39
:10436000F0EE680A9DED067B21492A488BED027B21
:10437000FFF7A6F8D4E600238021224885F86930AB
:10438000FDF728FDA5E6012280212148FDF71EFD4D
:10439000A7E5002380211B4885F86930FDF71AFD49
:1043A0009BE500238021174885F86930FDF712FD51
:1043B000B1E59FED097B85ED2E7BABE69FED087B9C
:1043C00085ED2E7BC2E500BF9A9999999999C93FCD
:1043D000666666666666E63F0000000000003C40D8
:1043E0000000000000003CC00000F03F00003C4026
:1043F0001002002070000020C8010020B80000203A
:10440000A8000020000C02400014024000003540CB
:104410000018024010000020002220211848FDF75B
:10442000D5FC002204211748FDF7D0FC00224021D2
:104430001348FDF7CBFC002208211248FDF7C6FC0B
:10444000002385F8F33085F8F43085F8F03085F8EE
:10445000F130F0E69FED087B8BED047B7EE70023D7
:1044600002261A4620210648C5F8B03085F8AD600E
:10447000FDF7ACFCDFE600BF0000000000000040DC
:10448000000C024000180240704700BF10B582B017
:104490000024144B00945A6C42F480425A645A6CC3
:1044A00002F480420092009A01941A6C42F0805209
:1044B0001A641B6C03F080532246214601930520A9
:1044C000019BFDF7CFFA0520FDF702FB22462146AE
:1044D0005120FDF7C7FA512002B0BDE81040FDF7AA
:1044E000F7BA00BF00380240704700BF704700BFF6
:1044F000FCF7D8BC704700BF0148FDF779B900BF91
:10450000EC0200200148FDF773B900BFEC02002067
:104510000148FDF76DB900BFEC0200204FF40050D8
:10452000FDF762BC074B1A69D20707D51A6906491D
:1045300022F001021A610B7801330B700348FEF779
:104540007BB800BF00140040800100206C040020F4
:104550000148FEF707BB00BFAC040020704700BF56
:104560001049114BD1F8882042F4700210B4C1F800
:1045700088201A680D4C002042F001021A609860F1
:104580001A6822F0847222F480321A605C601A6821
:104590004FF0006422F480221A60D8608C605DF8CD
:1045A000044B704700ED00E000380240103000245A
:1045B00010B58CB02022002104A800F05BFA134B48
:1045C000134A1A604FF6FF7100220124D960184681
:1045D00003A95A6001929A60C3E904229A61CDE965
:1045E000022405940994FDF739FF58B9002301A965
:1045F0000648CDE90133FEF7C9F808B1FFF744FFDB
:104600000CB010BDFFF740FFF0E700BF2C04002006
:104610000000014010B58CB02022002104A800F059
:1046200029FA134B134A1A6001214FF6FF74002236
:10463000DC605960032405910991184603A99A602A
:1046400001921A619A61CDE90224FDF707FF58B97A
:10465000002301A90648CDE90133FEF797F808B118
:10466000FFF712FF0CB010BDFFF70EFFF0E700BF21
:10467000EC0300200004004010B5114B114A1A60F1
:1046800041F63F7282B0642480215A6018460022AD
:10469000DC6099619A60CDE90022FDF75BFE58B9B4
:1046A000002369460648CDE90033FEF76FF808B1EC
:1046B000FFF7EAFE02B010BDFFF7E6FEF0E700BF2D
:1046C0006C0400200014004010B58CB020220021A2
:1046D00004A800F0CFF9134B134A1A604FF6FF718C
:1046E00000220124D960184603A95A6001929A60F9
:1046F000C3E904229A61CDE9022405940994FDF7E7
:10470000ADFE58B9002301A90648CDE90133FEF7F3
:104710003DF808B1FFF7B8FE0CB010BDFFF7B4FECE
:10472000F0E700BFAC0300200004014030B5026890
:104730003A498DB000238A42CDE90733CDE90933E8
:104740000B9307D036498A4247D036498A4223D054
:104750000DB030BD344A0193516C344841F0010131
:104760005164516C01F00101019101990293136BA5
:1047700043F010031363136B03F010030293022240
:10478000012307A94FF42064029D0B93CDE9074252
:10479000FDF7D8F90DB030BD234A0593516C24487C
:1047A00041F002015164516C01F00201059105993B
:1047B0000693136B43F004031363136B03F00403BA
:1047C00006930222032307A9C024069D0B93CDE97B
:1047D0000742FDF7B7F90DB030BD134A0393116CD2
:1047E000144841F002011164116C01F002010391BF
:1047F00003990493136B43F001031363136B03F0EA
:1048000001030493C022022307A9049C0B93CDE962
:104810000723FDF797F90DB030BD00BF0000014040
:104820000004004000040140003802400010024033
:10483000000802400000024002680E4B9A4200D07D
:10484000704700B583B0002203F509330192196C5B
:1048500041F0200119641B6C03F020030193114601
:104860003720019BFDF7FEF8372003B05DF804EB1D
:10487000FDF72EB9001400400B4B0C4A10B50C216B
:104880001A604FF4E134002218465C605961C3E9B4
:1048900002221A61C3E90622FDF79EFF00B910BD8E
:1048A000BDE81040FFF7F0BDAC040020001401404B
:1048B00070B502681D4B88B000249A42CDE90344CC
:1048C000CDE90544079401D008B070BD03F59233DB
:1048D00001945A6C164842F020025A645A6C02F055
:1048E00020020192019A02941A6B42F040021A636C
:1048F0001B6B03F04003029302254FF48442012313
:1049000003A90392CDE9045303220823CDE906232A
:10491000029EFDF717F9224629464720FDF7A2F827
:104920004720FDF7D5F808B070BD00BF0014014066
:1049300000180240DFF834D0002103E00C4B5B5834
:10494000435004310B480C4B42189A42F6D30B4AA1
:1049500002E0002342F8043B094B9A42F9D3FFF7E7
:10496000FFFD00F063F8FFF7E7F970470000032050
:10497000C44A00080000002038010020380100204F
:10498000EC040020FEE7000053EC102B70B5C3F3DD
:104990000A55A5F2FF301328194610EE104A12DC12
:1049A00000282BDB204D05412B421E462CD04FF416
:1049B00000210141314421EA050100240B46224631
:1049C00043EC102B70BD332805DDB0F5806F1ED091
:1049D00043EC102B70BDA5F213454FF0FF3626FABD
:1049E00005F52A42F4D00123C0F1330003FA00F0A8
:1049F000241828BFC91824EA0504DFE7013003F0B2
:104A000000410BD00024D9E7002AD0D1E0E710EE16
:104A1000100AFBF7F3FB41EC100B70BD41F07F5126
:104A200041F440110024C9E7FFFF0F0070B50D4E9F
:104A30000D4CA41BA4100025A54209D10B4E0C4C13
:104A400000F020F8A41BA4100025A54205D170BDDC
:104A500056F8253098470135EEE756F82530984747
:104A60000135F2E7BC4A0008BC4A0008BC4A00080D
:104A7000C04A000802440346934200D1704703F83D
:104A8000011BF9E7F8B500BFF8BC08BC9E467047AB
:0C4A9000F8B500BFF8BC08BC9E4670479B
:104A9C0000000000000000000102030406070809E2
:084AAC000000000001020304F8
:084AB400A8C0FF7F0100000013
:044ABC00D501000818
:044AC000B101000838
:104AC40001000000100000000100000000000000D0
:104AD40000000000000000000000000000000000D2
:104AE40000000000000000000000000000000000C2
:104AF40000000000000000000000000000000000B2
:104B0400000000000000000000000000000014404D
:104B1400000000000000F03F000000000000000062
:104B240000000000000049400000000000000000F8
:104B34000000000000000000000000000000000071
:104B44000000000000000000000000000000000061
:104B54000000000000000000000000000000000051
:104B64000000000000000000000000000000000041
:104B74000000000000000000000000000000000031
:104B84000000000000000000000000000000000021
:104B94000000000000000000010000000000000010
:104BA400640100000000000000000000000000009C
:104BB4000800000000000000630100000000000085
:104BC40000000000000000000800000000000000D9
:104BD400010000006201000000000000000000006D
:104BE40000000000080000000000000001000000B8
:084BF400010000000024F400A0
:040000050800493571
:00000001FF
